{
  "_format": "hh-sol-artifact-1",
  "contractName": "MyEpicNFT",
  "sourceName": "contracts/MyEpicNFT.sol",
  "abi": [
    {
      "inputs": [],
      "stateMutability": "nonpayable",
      "type": "constructor"
    },
    {
      "anonymous": false,
      "inputs": [
        {
          "indexed": true,
          "internalType": "address",
          "name": "owner",
          "type": "address"
        },
        {
          "indexed": true,
          "internalType": "address",
          "name": "approved",
          "type": "address"
        },
        {
          "indexed": true,
          "internalType": "uint256",
          "name": "tokenId",
          "type": "uint256"
        }
      ],
      "name": "Approval",
      "type": "event"
    },
    {
      "anonymous": false,
      "inputs": [
        {
          "indexed": true,
          "internalType": "address",
          "name": "owner",
          "type": "address"
        },
        {
          "indexed": true,
          "internalType": "address",
          "name": "operator",
          "type": "address"
        },
        {
          "indexed": false,
          "internalType": "bool",
          "name": "approved",
          "type": "bool"
        }
      ],
      "name": "ApprovalForAll",
      "type": "event"
    },
    {
      "anonymous": false,
      "inputs": [
        {
          "indexed": false,
          "internalType": "address",
          "name": "sender",
          "type": "address"
        },
        {
          "indexed": false,
          "internalType": "uint256",
          "name": "tokenId",
          "type": "uint256"
        }
      ],
      "name": "NewEpicNFTMinted",
      "type": "event"
    },
    {
      "anonymous": false,
      "inputs": [
        {
          "indexed": true,
          "internalType": "address",
          "name": "from",
          "type": "address"
        },
        {
          "indexed": true,
          "internalType": "address",
          "name": "to",
          "type": "address"
        },
        {
          "indexed": true,
          "internalType": "uint256",
          "name": "tokenId",
          "type": "uint256"
        }
      ],
      "name": "Transfer",
      "type": "event"
    },
    {
      "inputs": [],
      "name": "MAX_SUPPLY",
      "outputs": [
        {
          "internalType": "uint256",
          "name": "",
          "type": "uint256"
        }
      ],
      "stateMutability": "view",
      "type": "function"
    },
    {
      "inputs": [
        {
          "internalType": "address",
          "name": "to",
          "type": "address"
        },
        {
          "internalType": "uint256",
          "name": "tokenId",
          "type": "uint256"
        }
      ],
      "name": "approve",
      "outputs": [],
      "stateMutability": "nonpayable",
      "type": "function"
    },
    {
      "inputs": [
        {
          "internalType": "address",
          "name": "owner",
          "type": "address"
        }
      ],
      "name": "balanceOf",
      "outputs": [
        {
          "internalType": "uint256",
          "name": "",
          "type": "uint256"
        }
      ],
      "stateMutability": "view",
      "type": "function"
    },
    {
      "inputs": [
        {
          "internalType": "uint256",
          "name": "tokenId",
          "type": "uint256"
        }
      ],
      "name": "getApproved",
      "outputs": [
        {
          "internalType": "address",
          "name": "",
          "type": "address"
        }
      ],
      "stateMutability": "view",
      "type": "function"
    },
    {
      "inputs": [
        {
          "internalType": "address",
          "name": "owner",
          "type": "address"
        },
        {
          "internalType": "address",
          "name": "operator",
          "type": "address"
        }
      ],
      "name": "isApprovedForAll",
      "outputs": [
        {
          "internalType": "bool",
          "name": "",
          "type": "bool"
        }
      ],
      "stateMutability": "view",
      "type": "function"
    },
    {
      "inputs": [],
      "name": "makeAnEpicNFT",
      "outputs": [],
      "stateMutability": "nonpayable",
      "type": "function"
    },
    {
      "inputs": [],
      "name": "name",
      "outputs": [
        {
          "internalType": "string",
          "name": "",
          "type": "string"
        }
      ],
      "stateMutability": "view",
      "type": "function"
    },
    {
      "inputs": [
        {
          "internalType": "uint256",
          "name": "tokenId",
          "type": "uint256"
        }
      ],
      "name": "ownerOf",
      "outputs": [
        {
          "internalType": "address",
          "name": "",
          "type": "address"
        }
      ],
      "stateMutability": "view",
      "type": "function"
    },
    {
      "inputs": [
        {
          "internalType": "uint256",
          "name": "tokenId",
          "type": "uint256"
        }
      ],
      "name": "pickRandomFirstWord",
      "outputs": [
        {
          "internalType": "string",
          "name": "",
          "type": "string"
        }
      ],
      "stateMutability": "view",
      "type": "function"
    },
    {
      "inputs": [
        {
          "internalType": "uint256",
          "name": "tokenId",
          "type": "uint256"
        }
      ],
      "name": "pickRandomSecondWord",
      "outputs": [
        {
          "internalType": "string",
          "name": "",
          "type": "string"
        }
      ],
      "stateMutability": "view",
      "type": "function"
    },
    {
      "inputs": [
        {
          "internalType": "uint256",
          "name": "tokenId",
          "type": "uint256"
        }
      ],
      "name": "pickRandomThirdWord",
      "outputs": [
        {
          "internalType": "string",
          "name": "",
          "type": "string"
        }
      ],
      "stateMutability": "view",
      "type": "function"
    },
    {
      "inputs": [
        {
          "internalType": "address",
          "name": "from",
          "type": "address"
        },
        {
          "internalType": "address",
          "name": "to",
          "type": "address"
        },
        {
          "internalType": "uint256",
          "name": "tokenId",
          "type": "uint256"
        }
      ],
      "name": "safeTransferFrom",
      "outputs": [],
      "stateMutability": "nonpayable",
      "type": "function"
    },
    {
      "inputs": [
        {
          "internalType": "address",
          "name": "from",
          "type": "address"
        },
        {
          "internalType": "address",
          "name": "to",
          "type": "address"
        },
        {
          "internalType": "uint256",
          "name": "tokenId",
          "type": "uint256"
        },
        {
          "internalType": "bytes",
          "name": "_data",
          "type": "bytes"
        }
      ],
      "name": "safeTransferFrom",
      "outputs": [],
      "stateMutability": "nonpayable",
      "type": "function"
    },
    {
      "inputs": [
        {
          "internalType": "address",
          "name": "operator",
          "type": "address"
        },
        {
          "internalType": "bool",
          "name": "approved",
          "type": "bool"
        }
      ],
      "name": "setApprovalForAll",
      "outputs": [],
      "stateMutability": "nonpayable",
      "type": "function"
    },
    {
      "inputs": [
        {
          "internalType": "bytes4",
          "name": "interfaceId",
          "type": "bytes4"
        }
      ],
      "name": "supportsInterface",
      "outputs": [
        {
          "internalType": "bool",
          "name": "",
          "type": "bool"
        }
      ],
      "stateMutability": "view",
      "type": "function"
    },
    {
      "inputs": [],
      "name": "symbol",
      "outputs": [
        {
          "internalType": "string",
          "name": "",
          "type": "string"
        }
      ],
      "stateMutability": "view",
      "type": "function"
    },
    {
      "inputs": [
        {
          "internalType": "uint256",
          "name": "tokenId",
          "type": "uint256"
        }
      ],
      "name": "tokenURI",
      "outputs": [
        {
          "internalType": "string",
          "name": "",
          "type": "string"
        }
      ],
      "stateMutability": "view",
      "type": "function"
    },
    {
      "inputs": [
        {
          "internalType": "address",
          "name": "from",
          "type": "address"
        },
        {
          "internalType": "address",
          "name": "to",
          "type": "address"
        },
        {
          "internalType": "uint256",
          "name": "tokenId",
          "type": "uint256"
        }
      ],
      "name": "transferFrom",
      "outputs": [],
      "stateMutability": "nonpayable",
      "type": "function"
    }
  ],
  "bytecode": "0x608060405260405180610160016040528061012f8152602001620045ee61012f913960089080519060200190620000389291906200067e565b506040518060c001604052806040518060400160405280600381526020017f4f6e65000000000000000000000000000000000000000000000000000000000081525081526020016040518060400160405280600381526020017f54776f000000000000000000000000000000000000000000000000000000000081525081526020016040518060400160405280600581526020017f546872656500000000000000000000000000000000000000000000000000000081525081526020016040518060400160405280600481526020017f466f75720000000000000000000000000000000000000000000000000000000081525081526020016040518060400160405280600481526020017f466976650000000000000000000000000000000000000000000000000000000081525081526020016040518060400160405280600381526020017f53697800000000000000000000000000000000000000000000000000000000008152508152506009906006620001b69291906200070f565b506040518060c001604052806040518060400160405280600681526020017f4c6974746c65000000000000000000000000000000000000000000000000000081525081526020016040518060400160405280600381526020017f426967000000000000000000000000000000000000000000000000000000000081525081526020016040518060400160405280600481526020017f437574650000000000000000000000000000000000000000000000000000000081525081526020016040518060400160405280600881526020017f5465727269626c6500000000000000000000000000000000000000000000000081525081526020016040518060400160405280600581526020017f4e6f69737900000000000000000000000000000000000000000000000000000081525081526020016040518060400160405280600681526020017f4c6976656c790000000000000000000000000000000000000000000000000000815250815250600a906006620003349291906200070f565b506040518060c001604052806040518060400160405280600381526020017f446f67000000000000000000000000000000000000000000000000000000000081525081526020016040518060400160405280600381526020017f436174000000000000000000000000000000000000000000000000000000000081525081526020016040518060400160405280600481526020017f426972640000000000000000000000000000000000000000000000000000000081525081526020016040518060400160405280600581526020017f48756d616e00000000000000000000000000000000000000000000000000000081525081526020016040518060400160405280600581526020017f536e616b6500000000000000000000000000000000000000000000000000000081525081526020016040518060400160405280600681526020017f547572746c650000000000000000000000000000000000000000000000000000815250815250600b906006620004b29291906200070f565b50348015620004c057600080fd5b506040518060400160405280600981526020017f5371756172654e465400000000000000000000000000000000000000000000008152506040518060400160405280600681526020017f53515541524500000000000000000000000000000000000000000000000000008152508160009080519060200190620005459291906200067e565b5080600190805190602001906200055e9291906200067e565b505050620005ac6040518060400160405280601881526020017f54686973206973206d79204e465420636f6e74726163742e0000000000000000815250620005b260201b620012321760201c565b62000930565b6200065281604051602401620005c9919062000844565b6040516020818303038152906040527f41304fac000000000000000000000000000000000000000000000000000000007bffffffffffffffffffffffffffffffffffffffffffffffffffffffff19166020820180517bffffffffffffffffffffffffffffffffffffffffffffffffffffffff83818316178352505050506200065560201b60201c565b50565b60008151905060006a636f6e736f6c652e6c6f679050602083016000808483855afa5050505050565b8280546200068c90620008ba565b90600052602060002090601f016020900481019282620006b05760008555620006fc565b82601f10620006cb57805160ff1916838001178555620006fc565b82800160010185558215620006fc579182015b82811115620006fb578251825591602001919060010190620006de565b5b5090506200070b919062000776565b5090565b82805482825590600052602060002090810192821562000763579160200282015b8281111562000762578251829080519060200190620007519291906200067e565b509160200191906001019062000730565b5b50905062000772919062000795565b5090565b5b808211156200079157600081600090555060010162000777565b5090565b5b80821115620007b95760008181620007af9190620007bd565b5060010162000796565b5090565b508054620007cb90620008ba565b6000825580601f10620007df575062000800565b601f016020900490600052602060002090810190620007ff919062000776565b5b50565b6000620008108262000868565b6200081c818562000873565b93506200082e81856020860162000884565b62000839816200091f565b840191505092915050565b6000602082019050818103600083015262000860818462000803565b905092915050565b600081519050919050565b600082825260208201905092915050565b60005b83811015620008a457808201518184015260208101905062000887565b83811115620008b4576000848401525b50505050565b60006002820490506001821680620008d357607f821691505b60208210811415620008ea57620008e9620008f0565b5b50919050565b7f4e487b7100000000000000000000000000000000000000000000000000000000600052602260045260246000fd5b6000601f19601f8301169050919050565b613cae80620009406000396000f3fe608060405234801561001057600080fd5b50600436106101165760003560e01c806370a08231116100a2578063b88d4fde11610071578063b88d4fde14610305578063c575757a14610321578063c87b56dd14610351578063de9d132f14610381578063e985e9c51461038b57610116565b806370a082311461026b57806395d89b411461029b578063a22cb465146102b9578063b187301f146102d557610116565b806323b872dd116100e957806323b872dd146101b55780632de38d68146101d157806332cb6b0c1461020157806342842e0e1461021f5780636352211e1461023b57610116565b806301ffc9a71461011b57806306fdde031461014b578063081812fc14610169578063095ea7b314610199575b600080fd5b610135600480360381019061013091906126fa565b6103bb565b6040516101429190612e27565b60405180910390f35b61015361049d565b6040516101609190612e42565b60405180910390f35b610183600480360381019061017e919061274c565b61052f565b6040516101909190612d97565b60405180910390f35b6101b360048036038101906101ae91906126be565b6105b4565b005b6101cf60048036038101906101ca91906125b8565b6106cc565b005b6101eb60048036038101906101e6919061274c565b61072c565b6040516101f89190612e42565b60405180910390f35b6102096108c8565b60405161021691906130f2565b60405180910390f35b610239600480360381019061023491906125b8565b6108cd565b005b6102556004803603810190610250919061274c565b6108ed565b6040516102629190612d97565b60405180910390f35b61028560048036038101906102809190612553565b61099f565b60405161029291906130f2565b60405180910390f35b6102a3610a57565b6040516102b09190612e42565b60405180910390f35b6102d360048036038101906102ce9190612682565b610ae9565b005b6102ef60048036038101906102ea919061274c565b610aff565b6040516102fc9190612e42565b60405180910390f35b61031f600480360381019061031a9190612607565b610c1d565b005b61033b6004803603810190610336919061274c565b610c7f565b6040516103489190612e42565b60405180910390f35b61036b6004803603810190610366919061274c565b610d9d565b6040516103789190612e42565b60405180910390f35b610389610eef565b005b6103a560048036038101906103a0919061257c565b61119e565b6040516103b29190612e27565b60405180910390f35b60007f80ac58cd000000000000000000000000000000000000000000000000000000007bffffffffffffffffffffffffffffffffffffffffffffffffffffffff1916827bffffffffffffffffffffffffffffffffffffffffffffffffffffffff1916148061048657507f5b5e139f000000000000000000000000000000000000000000000000000000007bffffffffffffffffffffffffffffffffffffffffffffffffffffffff1916827bffffffffffffffffffffffffffffffffffffffffffffffffffffffff1916145b806104965750610495826112cb565b5b9050919050565b6060600080546104ac90613386565b80601f01602080910402602001604051908101604052809291908181526020018280546104d890613386565b80156105255780601f106104fa57610100808354040283529160200191610525565b820191906000526020600020905b81548152906001019060200180831161050857829003601f168201915b5050505050905090565b600061053a82611335565b610579576040517f08c379a000000000000000000000000000000000000000000000000000000000815260040161057090613052565b60405180910390fd5b6004600083815260200190815260200160002060009054906101000a900473ffffffffffffffffffffffffffffffffffffffff169050919050565b60006105bf826108ed565b90508073ffffffffffffffffffffffffffffffffffffffff168373ffffffffffffffffffffffffffffffffffffffff161415610630576040517f08c379a0000000000000000000000000000000000000000000000000000000008152600401610627906130b2565b60405180910390fd5b8073ffffffffffffffffffffffffffffffffffffffff1661064f6113a1565b73ffffffffffffffffffffffffffffffffffffffff16148061067e575061067d816106786113a1565b61119e565b5b6106bd576040517f08c379a00000000000000000000000000000000000000000000000000000000081526004016106b490612f92565b60405180910390fd5b6106c783836113a9565b505050565b6106dd6106d76113a1565b82611462565b61071c576040517f08c379a0000000000000000000000000000000000000000000000000000000008152600401610713906130d2565b60405180910390fd5b610727838383611540565b505050565b6060600061076061073c846117a7565b60405160200161074c9190612d53565b604051602081830303815290604052611954565b90506107a16040518060400160405280600d81526020017f72616e64202d20736565643a200000000000000000000000000000000000000081525082611987565b600980549050816107b29190613432565b90506107f36040518060400160405280601381526020017f72616e64202d20666972737420776f72643a200000000000000000000000000081525082611987565b6009818154811061082d577f4e487b7100000000000000000000000000000000000000000000000000000000600052603260045260246000fd5b90600052602060002001805461084290613386565b80601f016020809104026020016040519081016040528092919081815260200182805461086e90613386565b80156108bb5780601f10610890576101008083540402835291602001916108bb565b820191906000526020600020905b81548152906001019060200180831161089e57829003601f168201915b5050505050915050919050565b603281565b6108e883838360405180602001604052806000815250610c1d565b505050565b6000806002600084815260200190815260200160002060009054906101000a900473ffffffffffffffffffffffffffffffffffffffff169050600073ffffffffffffffffffffffffffffffffffffffff168173ffffffffffffffffffffffffffffffffffffffff161415610996576040517f08c379a000000000000000000000000000000000000000000000000000000000815260040161098d90612fd2565b60405180910390fd5b80915050919050565b60008073ffffffffffffffffffffffffffffffffffffffff168273ffffffffffffffffffffffffffffffffffffffff161415610a10576040517f08c379a0000000000000000000000000000000000000000000000000000000008152600401610a0790612fb2565b60405180910390fd5b600360008373ffffffffffffffffffffffffffffffffffffffff1673ffffffffffffffffffffffffffffffffffffffff168152602001908152602001600020549050919050565b606060018054610a6690613386565b80601f0160208091040260200160405190810160405280929190818152602001828054610a9290613386565b8015610adf5780601f10610ab457610100808354040283529160200191610adf565b820191906000526020600020905b815481529060010190602001808311610ac257829003601f168201915b5050505050905090565b610afb610af46113a1565b8383611a23565b5050565b60606000610b33610b0f846117a7565b604051602001610b1f9190612cec565b604051602081830303815290604052611954565b9050600a8054905081610b469190613432565b9050600a8181548110610b82577f4e487b7100000000000000000000000000000000000000000000000000000000600052603260045260246000fd5b906000526020600020018054610b9790613386565b80601f0160208091040260200160405190810160405280929190818152602001828054610bc390613386565b8015610c105780601f10610be557610100808354040283529160200191610c10565b820191906000526020600020905b815481529060010190602001808311610bf357829003601f168201915b5050505050915050919050565b610c2e610c286113a1565b83611462565b610c6d576040517f08c379a0000000000000000000000000000000000000000000000000000000008152600401610c64906130d2565b60405180910390fd5b610c7984848484611b90565b50505050565b60606000610cb3610c8f846117a7565b604051602001610c9f9190612cca565b604051602081830303815290604052611954565b9050600b8054905081610cc69190613432565b9050600b8181548110610d02577f4e487b7100000000000000000000000000000000000000000000000000000000600052603260045260246000fd5b906000526020600020018054610d1790613386565b80601f0160208091040260200160405190810160405280929190818152602001828054610d4390613386565b8015610d905780601f10610d6557610100808354040283529160200191610d90565b820191906000526020600020905b815481529060010190602001808311610d7357829003601f168201915b5050505050915050919050565b6060610da882611335565b610de7576040517f08c379a0000000000000000000000000000000000000000000000000000000008152600401610dde90613032565b60405180910390fd5b6000600660008481526020019081526020016000208054610e0790613386565b80601f0160208091040260200160405190810160405280929190818152602001828054610e3390613386565b8015610e805780601f10610e5557610100808354040283529160200191610e80565b820191906000526020600020905b815481529060010190602001808311610e6357829003601f168201915b505050505090506000610e91611bec565b9050600081511415610ea7578192505050610eea565b600082511115610edc578082604051602001610ec4929190612c46565b60405160208183030381529060405292505050610eea565b610ee584611c03565b925050505b919050565b6000610efb6007611caa565b905060328110610f40576040517f08c379a0000000000000000000000000000000000000000000000000000000008152600401610f3790613092565b60405180910390fd5b6000610f4b8261072c565b90506000610f5883610aff565b90506000610f6584610c7f565b90506000838383604051602001610f7e93929190612c6a565b60405160208183030381529060405290506000600882604051602001610fa5929190612c9b565b6040516020818303038152906040529050610ff46040518060400160405280601581526020017f0a2d2d2d2d2d205356472064617461202d2d2d2d2d0000000000000000000000815250611232565b610ffd81611232565b61103b6040518060400160405280601581526020017f2d2d2d2d2d2d2d2d2d2d2d2d2d2d2d2d2d2d2d2d0a0000000000000000000000815250611232565b600061106f8361104a84611cb8565b60405160200161105b929190612d0e565b604051602081830303815290604052611cb8565b90506000816040516020016110849190612d75565b60405160208183030381529060405290506110d36040518060400160405280601581526020017f0a2d2d2d2d2d20546f6b656e20555249202d2d2d2d0000000000000000000000815250611232565b6110dc81611232565b61111a6040518060400160405280601581526020017f2d2d2d2d2d2d2d2d2d2d2d2d2d2d2d2d2d2d2d2d0a0000000000000000000000815250611232565b6111243389611e76565b61112e8882611e94565b611151604051806060016040528060258152602001613c14602591398933611f08565b61115b6007611fa7565b7febb98688741ffa4c7589bf325de30cf7becb63de567842e1ccdb6cb949fdc82c338960405161118c929190612dfe565b60405180910390a15050505050505050565b6000600560008473ffffffffffffffffffffffffffffffffffffffff1673ffffffffffffffffffffffffffffffffffffffff16815260200190815260200160002060008373ffffffffffffffffffffffffffffffffffffffff1673ffffffffffffffffffffffffffffffffffffffff16815260200190815260200160002060009054906101000a900460ff16905092915050565b6112c8816040516024016112469190612e42565b6040516020818303038152906040527f41304fac000000000000000000000000000000000000000000000000000000007bffffffffffffffffffffffffffffffffffffffffffffffffffffffff19166020820180517bffffffffffffffffffffffffffffffffffffffffffffffffffffffff8381831617835250505050611fbd565b50565b60007f01ffc9a7000000000000000000000000000000000000000000000000000000007bffffffffffffffffffffffffffffffffffffffffffffffffffffffff1916827bffffffffffffffffffffffffffffffffffffffffffffffffffffffff1916149050919050565b60008073ffffffffffffffffffffffffffffffffffffffff166002600084815260200190815260200160002060009054906101000a900473ffffffffffffffffffffffffffffffffffffffff1673ffffffffffffffffffffffffffffffffffffffff1614159050919050565b600033905090565b816004600083815260200190815260200160002060006101000a81548173ffffffffffffffffffffffffffffffffffffffff021916908373ffffffffffffffffffffffffffffffffffffffff160217905550808273ffffffffffffffffffffffffffffffffffffffff1661141c836108ed565b73ffffffffffffffffffffffffffffffffffffffff167f8c5be1e5ebec7d5bd14f71427d1e84f3dd0314c0f7b2291e5b200ac8c7c3b92560405160405180910390a45050565b600061146d82611335565b6114ac576040517f08c379a00000000000000000000000000000000000000000000000000000000081526004016114a390612f72565b60405180910390fd5b60006114b7836108ed565b90508073ffffffffffffffffffffffffffffffffffffffff168473ffffffffffffffffffffffffffffffffffffffff16148061152657508373ffffffffffffffffffffffffffffffffffffffff1661150e8461052f565b73ffffffffffffffffffffffffffffffffffffffff16145b806115375750611536818561119e565b5b91505092915050565b8273ffffffffffffffffffffffffffffffffffffffff16611560826108ed565b73ffffffffffffffffffffffffffffffffffffffff16146115b6576040517f08c379a00000000000000000000000000000000000000000000000000000000081526004016115ad90612ef2565b60405180910390fd5b600073ffffffffffffffffffffffffffffffffffffffff168273ffffffffffffffffffffffffffffffffffffffff161415611626576040517f08c379a000000000000000000000000000000000000000000000000000000000815260040161161d90612f32565b60405180910390fd5b611631838383611fe6565b61163c6000826113a9565b6001600360008573ffffffffffffffffffffffffffffffffffffffff1673ffffffffffffffffffffffffffffffffffffffff168152602001908152602001600020600082825461168c919061329c565b925050819055506001600360008473ffffffffffffffffffffffffffffffffffffffff1673ffffffffffffffffffffffffffffffffffffffff16815260200190815260200160002060008282546116e391906131bb565b92505081905550816002600083815260200190815260200160002060006101000a81548173ffffffffffffffffffffffffffffffffffffffff021916908373ffffffffffffffffffffffffffffffffffffffff160217905550808273ffffffffffffffffffffffffffffffffffffffff168473ffffffffffffffffffffffffffffffffffffffff167fddf252ad1be2c89b69c2b068fc378daa952ba7f163c4a11628f55a4df523b3ef60405160405180910390a46117a2838383611feb565b505050565b606060008214156117ef576040518060400160405280600181526020017f3000000000000000000000000000000000000000000000000000000000000000815250905061194f565b600082905060005b6000821461182157808061180a906133e9565b915050600a8261181a9190613211565b91506117f7565b60008167ffffffffffffffff811115611863577f4e487b7100000000000000000000000000000000000000000000000000000000600052604160045260246000fd5b6040519080825280601f01601f1916602001820160405280156118955781602001600182028036833780820191505090505b5090505b60008514611948576001826118ae919061329c565b9150600a856118bd9190613432565b60306118c991906131bb565b60f81b818381518110611905577f4e487b7100000000000000000000000000000000000000000000000000000000600052603260045260246000fd5b60200101907effffffffffffffffffffffffffffffffffffffffffffffffffffffffffffff1916908160001a905350600a856119419190613211565b9450611899565b8093505050505b919050565b6000816040516020016119679190612c2f565b6040516020818303038152906040528051906020012060001c9050919050565b611a1f828260405160240161199d929190612e64565b6040516020818303038152906040527f9710a9d0000000000000000000000000000000000000000000000000000000007bffffffffffffffffffffffffffffffffffffffffffffffffffffffff19166020820180517bffffffffffffffffffffffffffffffffffffffffffffffffffffffff8381831617835250505050611fbd565b5050565b8173ffffffffffffffffffffffffffffffffffffffff168373ffffffffffffffffffffffffffffffffffffffff161415611a92576040517f08c379a0000000000000000000000000000000000000000000000000000000008152600401611a8990612f52565b60405180910390fd5b80600560008573ffffffffffffffffffffffffffffffffffffffff1673ffffffffffffffffffffffffffffffffffffffff16815260200190815260200160002060008473ffffffffffffffffffffffffffffffffffffffff1673ffffffffffffffffffffffffffffffffffffffff16815260200190815260200160002060006101000a81548160ff0219169083151502179055508173ffffffffffffffffffffffffffffffffffffffff168373ffffffffffffffffffffffffffffffffffffffff167f17307eab39ab6107e8899845ad3d59bd9653f200f220920489ca2b5937696c3183604051611b839190612e27565b60405180910390a3505050565b611b9b848484611540565b611ba784848484611ff0565b611be6576040517f08c379a0000000000000000000000000000000000000000000000000000000008152600401611bdd90612ed2565b60405180910390fd5b50505050565b606060405180602001604052806000815250905090565b6060611c0e82611335565b611c4d576040517f08c379a0000000000000000000000000000000000000000000000000000000008152600401611c4490613072565b60405180910390fd5b6000611c57611bec565b90506000815111611c775760405180602001604052806000815250611ca2565b80611c81846117a7565b604051602001611c92929190612c46565b6040516020818303038152906040525b915050919050565b600081600001549050919050565b60606000825190506000811415611ce15760405180602001604052806000815250915050611e71565b60006003600283611cf291906131bb565b611cfc9190613211565b6004611d089190613242565b90506000602082611d1991906131bb565b67ffffffffffffffff811115611d58577f4e487b7100000000000000000000000000000000000000000000000000000000600052604160045260246000fd5b6040519080825280601f01601f191660200182016040528015611d8a5781602001600182028036833780820191505090505b5090506000604051806060016040528060408152602001613c39604091399050600181016020830160005b86811015611e2e5760038101905062ffffff818a015116603f8160121c168401518060081b905060ff603f83600c1c1686015116810190508060081b905060ff603f8360061c1686015116810190508060081b905060ff603f831686015116810190508060e01b90508084526004840193505050611db5565b506003860660018114611e485760028114611e5857611e63565b613d3d60f01b6002830352611e63565b603d60f81b60018303525b508484525050819450505050505b919050565b611e90828260405180602001604052806000815250612187565b5050565b611e9d82611335565b611edc576040517f08c379a0000000000000000000000000000000000000000000000000000000008152600401611ed390612ff2565b60405180910390fd5b80600660008481526020019081526020016000209080519060200190611f039291906123df565b505050565b611fa2838383604051602401611f2093929190612e94565b6040516020818303038152906040527fe3849f79000000000000000000000000000000000000000000000000000000007bffffffffffffffffffffffffffffffffffffffffffffffffffffffff19166020820180517bffffffffffffffffffffffffffffffffffffffffffffffffffffffff8381831617835250505050611fbd565b505050565b6001816000016000828254019250508190555050565b60008151905060006a636f6e736f6c652e6c6f679050602083016000808483855afa5050505050565b505050565b505050565b60006120118473ffffffffffffffffffffffffffffffffffffffff166121e2565b1561217a578373ffffffffffffffffffffffffffffffffffffffff1663150b7a0261203a6113a1565b8786866040518563ffffffff1660e01b815260040161205c9493929190612db2565b602060405180830381600087803b15801561207657600080fd5b505af19250505080156120a757506040513d601f19601f820116820180604052508101906120a49190612723565b60015b61212a573d80600081146120d7576040519150601f19603f3d011682016040523d82523d6000602084013e6120dc565b606091505b50600081511415612122576040517f08c379a000000000000000000000000000000000000000000000000000000000815260040161211990612ed2565b60405180910390fd5b805181602001fd5b63150b7a0260e01b7bffffffffffffffffffffffffffffffffffffffffffffffffffffffff1916817bffffffffffffffffffffffffffffffffffffffffffffffffffffffff19161491505061217f565b600190505b949350505050565b6121918383612205565b61219e6000848484611ff0565b6121dd576040517f08c379a00000000000000000000000000000000000000000000000000000000081526004016121d490612ed2565b60405180910390fd5b505050565b6000808273ffffffffffffffffffffffffffffffffffffffff163b119050919050565b600073ffffffffffffffffffffffffffffffffffffffff168273ffffffffffffffffffffffffffffffffffffffff161415612275576040517f08c379a000000000000000000000000000000000000000000000000000000000815260040161226c90613012565b60405180910390fd5b61227e81611335565b156122be576040517f08c379a00000000000000000000000000000000000000000000000000000000081526004016122b590612f12565b60405180910390fd5b6122ca60008383611fe6565b6001600360008473ffffffffffffffffffffffffffffffffffffffff1673ffffffffffffffffffffffffffffffffffffffff168152602001908152602001600020600082825461231a91906131bb565b92505081905550816002600083815260200190815260200160002060006101000a81548173ffffffffffffffffffffffffffffffffffffffff021916908373ffffffffffffffffffffffffffffffffffffffff160217905550808273ffffffffffffffffffffffffffffffffffffffff16600073ffffffffffffffffffffffffffffffffffffffff167fddf252ad1be2c89b69c2b068fc378daa952ba7f163c4a11628f55a4df523b3ef60405160405180910390a46123db60008383611feb565b5050565b8280546123eb90613386565b90600052602060002090601f01602090048101928261240d5760008555612454565b82601f1061242657805160ff1916838001178555612454565b82800160010185558215612454579182015b82811115612453578251825591602001919060010190612438565b5b5090506124619190612465565b5090565b5b8082111561247e576000816000905550600101612466565b5090565b600061249561249084613132565b61310d565b9050828152602081018484840111156124ad57600080fd5b6124b8848285613344565b509392505050565b6000813590506124cf81613bb7565b92915050565b6000813590506124e481613bce565b92915050565b6000813590506124f981613be5565b92915050565b60008151905061250e81613be5565b92915050565b600082601f83011261252557600080fd5b8135612535848260208601612482565b91505092915050565b60008135905061254d81613bfc565b92915050565b60006020828403121561256557600080fd5b6000612573848285016124c0565b91505092915050565b6000806040838503121561258f57600080fd5b600061259d858286016124c0565b92505060206125ae858286016124c0565b9150509250929050565b6000806000606084860312156125cd57600080fd5b60006125db868287016124c0565b93505060206125ec868287016124c0565b92505060406125fd8682870161253e565b9150509250925092565b6000806000806080858703121561261d57600080fd5b600061262b878288016124c0565b945050602061263c878288016124c0565b935050604061264d8782880161253e565b925050606085013567ffffffffffffffff81111561266a57600080fd5b61267687828801612514565b91505092959194509250565b6000806040838503121561269557600080fd5b60006126a3858286016124c0565b92505060206126b4858286016124d5565b9150509250929050565b600080604083850312156126d157600080fd5b60006126df858286016124c0565b92505060206126f08582860161253e565b9150509250929050565b60006020828403121561270c57600080fd5b600061271a848285016124ea565b91505092915050565b60006020828403121561273557600080fd5b6000612743848285016124ff565b91505092915050565b60006020828403121561275e57600080fd5b600061276c8482850161253e565b91505092915050565b61277e816132d0565b82525050565b61278d816132e2565b82525050565b600061279e82613178565b6127a8818561318e565b93506127b8818560208601613353565b6127c18161351f565b840191505092915050565b60006127d782613183565b6127e1818561319f565b93506127f1818560208601613353565b6127fa8161351f565b840191505092915050565b600061281082613183565b61281a81856131b0565b935061282a818560208601613353565b80840191505092915050565b6000815461284381613386565b61284d81866131b0565b945060018216600081146128685760018114612879576128ac565b60ff198316865281860193506128ac565b61288285613163565b60005b838110156128a457815481890152600182019150602081019050612885565b838801955050505b50505092915050565b60006128c260328361319f565b91506128cd82613530565b604082019050919050565b60006128e560258361319f565b91506128f08261357f565b604082019050919050565b6000612908601c8361319f565b9150612913826135ce565b602082019050919050565b600061292b600a836131b0565b9150612936826135f7565b600a82019050919050565b600061294e60248361319f565b915061295982613620565b604082019050919050565b600061297160198361319f565b915061297c8261366f565b602082019050919050565b60006129946063836131b0565b915061299f82613698565b606382019050919050565b60006129b7600b836131b0565b91506129c282613733565b600b82019050919050565b60006129da602c8361319f565b91506129e58261375c565b604082019050919050565b60006129fd600d836131b0565b9150612a08826137ab565b600d82019050919050565b6000612a2060388361319f565b9150612a2b826137d4565b604082019050919050565b6000612a43602a8361319f565b9150612a4e82613823565b604082019050919050565b6000612a6660298361319f565b9150612a7182613872565b604082019050919050565b6000612a89602e8361319f565b9150612a94826138c1565b604082019050919050565b6000612aac6002836131b0565b9150612ab782613910565b600282019050919050565b6000612acf60208361319f565b9150612ada82613939565b602082019050919050565b6000612af260318361319f565b9150612afd82613962565b604082019050919050565b6000612b15602c8361319f565b9150612b20826139b1565b604082019050919050565b6000612b38602f8361319f565b9150612b4382613a00565b604082019050919050565b6000612b5b600a836131b0565b9150612b6682613a4f565b600a82019050919050565b6000612b7e602f8361319f565b9150612b8982613a78565b604082019050919050565b6000612ba160218361319f565b9150612bac82613ac7565b604082019050919050565b6000612bc4600a836131b0565b9150612bcf82613b16565b600a82019050919050565b6000612be7601d836131b0565b9150612bf282613b3f565b601d82019050919050565b6000612c0a60318361319f565b9150612c1582613b68565b604082019050919050565b612c298161333a565b82525050565b6000612c3b8284612805565b915081905092915050565b6000612c528285612805565b9150612c5e8284612805565b91508190509392505050565b6000612c768286612805565b9150612c828285612805565b9150612c8e8284612805565b9150819050949350505050565b6000612ca78285612836565b9150612cb38284612805565b9150612cbe826129f0565b91508190509392505050565b6000612cd58261291e565b9150612ce18284612805565b915081905092915050565b6000612cf7826129aa565b9150612d038284612805565b915081905092915050565b6000612d1982612b4e565b9150612d258285612805565b9150612d3082612987565b9150612d3c8284612805565b9150612d4782612a9f565b91508190509392505050565b6000612d5e82612bb7565b9150612d6a8284612805565b915081905092915050565b6000612d8082612bda565b9150612d8c8284612805565b915081905092915050565b6000602082019050612dac6000830184612775565b92915050565b6000608082019050612dc76000830187612775565b612dd46020830186612775565b612de16040830185612c20565b8181036060830152612df38184612793565b905095945050505050565b6000604082019050612e136000830185612775565b612e206020830184612c20565b9392505050565b6000602082019050612e3c6000830184612784565b92915050565b60006020820190508181036000830152612e5c81846127cc565b905092915050565b60006040820190508181036000830152612e7e81856127cc565b9050612e8d6020830184612c20565b9392505050565b60006060820190508181036000830152612eae81866127cc565b9050612ebd6020830185612c20565b612eca6040830184612775565b949350505050565b60006020820190508181036000830152612eeb816128b5565b9050919050565b60006020820190508181036000830152612f0b816128d8565b9050919050565b60006020820190508181036000830152612f2b816128fb565b9050919050565b60006020820190508181036000830152612f4b81612941565b9050919050565b60006020820190508181036000830152612f6b81612964565b9050919050565b60006020820190508181036000830152612f8b816129cd565b9050919050565b60006020820190508181036000830152612fab81612a13565b9050919050565b60006020820190508181036000830152612fcb81612a36565b9050919050565b60006020820190508181036000830152612feb81612a59565b9050919050565b6000602082019050818103600083015261300b81612a7c565b9050919050565b6000602082019050818103600083015261302b81612ac2565b9050919050565b6000602082019050818103600083015261304b81612ae5565b9050919050565b6000602082019050818103600083015261306b81612b08565b9050919050565b6000602082019050818103600083015261308b81612b2b565b9050919050565b600060208201905081810360008301526130ab81612b71565b9050919050565b600060208201905081810360008301526130cb81612b94565b9050919050565b600060208201905081810360008301526130eb81612bfd565b9050919050565b60006020820190506131076000830184612c20565b92915050565b6000613117613128565b905061312382826133b8565b919050565b6000604051905090565b600067ffffffffffffffff82111561314d5761314c6134f0565b5b6131568261351f565b9050602081019050919050565b60008190508160005260206000209050919050565b600081519050919050565b600081519050919050565b600082825260208201905092915050565b600082825260208201905092915050565b600081905092915050565b60006131c68261333a565b91506131d18361333a565b9250827fffffffffffffffffffffffffffffffffffffffffffffffffffffffffffffffff0382111561320657613205613463565b5b828201905092915050565b600061321c8261333a565b91506132278361333a565b92508261323757613236613492565b5b828204905092915050565b600061324d8261333a565b91506132588361333a565b9250817fffffffffffffffffffffffffffffffffffffffffffffffffffffffffffffffff048311821515161561329157613290613463565b5b828202905092915050565b60006132a78261333a565b91506132b28361333a565b9250828210156132c5576132c4613463565b5b828203905092915050565b60006132db8261331a565b9050919050565b60008115159050919050565b60007fffffffff0000000000000000000000000000000000000000000000000000000082169050919050565b600073ffffffffffffffffffffffffffffffffffffffff82169050919050565b6000819050919050565b82818337600083830152505050565b60005b83811015613371578082015181840152602081019050613356565b83811115613380576000848401525b50505050565b6000600282049050600182168061339e57607f821691505b602082108114156133b2576133b16134c1565b5b50919050565b6133c18261351f565b810181811067ffffffffffffffff821117156133e0576133df6134f0565b5b80604052505050565b60006133f48261333a565b91507fffffffffffffffffffffffffffffffffffffffffffffffffffffffffffffffff82141561342757613426613463565b5b600182019050919050565b600061343d8261333a565b91506134488361333a565b92508261345857613457613492565b5b828206905092915050565b7f4e487b7100000000000000000000000000000000000000000000000000000000600052601160045260246000fd5b7f4e487b7100000000000000000000000000000000000000000000000000000000600052601260045260246000fd5b7f4e487b7100000000000000000000000000000000000000000000000000000000600052602260045260246000fd5b7f4e487b7100000000000000000000000000000000000000000000000000000000600052604160045260246000fd5b6000601f19601f8301169050919050565b7f4552433732313a207472616e7366657220746f206e6f6e20455243373231526560008201527f63656976657220696d706c656d656e7465720000000000000000000000000000602082015250565b7f4552433732313a207472616e736665722066726f6d20696e636f72726563742060008201527f6f776e6572000000000000000000000000000000000000000000000000000000602082015250565b7f4552433732313a20746f6b656e20616c7265616479206d696e74656400000000600082015250565b7f54484952445f574f524400000000000000000000000000000000000000000000600082015250565b7f4552433732313a207472616e7366657220746f20746865207a65726f2061646460008201527f7265737300000000000000000000000000000000000000000000000000000000602082015250565b7f4552433732313a20617070726f766520746f2063616c6c657200000000000000600082015250565b7f222c20226465736372697074696f6e223a20224120686967686c79206163636c60008201527f61696d656420636f6c6c656374696f6e206f6620737175617265732e222c202260208201527f696d616765223a2022646174613a696d6167652f7376672b786d6c3b6261736560408201527f36342c0000000000000000000000000000000000000000000000000000000000606082015250565b7f5345434f4e445f574f5244000000000000000000000000000000000000000000600082015250565b7f4552433732313a206f70657261746f7220717565727920666f72206e6f6e657860008201527f697374656e7420746f6b656e0000000000000000000000000000000000000000602082015250565b7f3c2f746578743e3c2f7376673e00000000000000000000000000000000000000600082015250565b7f4552433732313a20617070726f76652063616c6c6572206973206e6f74206f7760008201527f6e6572206e6f7220617070726f76656420666f7220616c6c0000000000000000602082015250565b7f4552433732313a2062616c616e636520717565727920666f7220746865207a6560008201527f726f206164647265737300000000000000000000000000000000000000000000602082015250565b7f4552433732313a206f776e657220717565727920666f72206e6f6e657869737460008201527f656e7420746f6b656e0000000000000000000000000000000000000000000000602082015250565b7f45524337323155524953746f726167653a2055524920736574206f66206e6f6e60008201527f6578697374656e7420746f6b656e000000000000000000000000000000000000602082015250565b7f227d000000000000000000000000000000000000000000000000000000000000600082015250565b7f4552433732313a206d696e7420746f20746865207a65726f2061646472657373600082015250565b7f45524337323155524953746f726167653a2055524920717565727920666f722060008201527f6e6f6e6578697374656e7420746f6b656e000000000000000000000000000000602082015250565b7f4552433732313a20617070726f76656420717565727920666f72206e6f6e657860008201527f697374656e7420746f6b656e0000000000000000000000000000000000000000602082015250565b7f4552433732314d657461646174613a2055524920717565727920666f72206e6f60008201527f6e6578697374656e7420746f6b656e0000000000000000000000000000000000602082015250565b7f7b226e616d65223a202200000000000000000000000000000000000000000000600082015250565b7f43616e6e6f74206d696e74206265636175736520746865206c696d697420686160008201527f73206265656e20726561636865642e0000000000000000000000000000000000602082015250565b7f4552433732313a20617070726f76616c20746f2063757272656e74206f776e6560008201527f7200000000000000000000000000000000000000000000000000000000000000602082015250565b7f46495253545f574f524400000000000000000000000000000000000000000000600082015250565b7f646174613a6170706c69636174696f6e2f6a736f6e3b6261736536342c000000600082015250565b7f4552433732313a207472616e736665722063616c6c6572206973206e6f74206f60008201527f776e6572206e6f7220617070726f766564000000000000000000000000000000602082015250565b613bc0816132d0565b8114613bcb57600080fd5b50565b613bd7816132e2565b8114613be257600080fd5b50565b613bee816132ee565b8114613bf957600080fd5b50565b613c058161333a565b8114613c1057600080fd5b5056fe416e204e465420772f20494420257320686173206265656e206d696e74656420746f2025734142434445464748494a4b4c4d4e4f505152535455565758595a6162636465666768696a6b6c6d6e6f707172737475767778797a303132333435363738392b2fa264697066735822122063285bed25409284125260c212eb7e528d6e1674cc807bf7689823a687d0bbce64736f6c634300080400333c73766720786d6c6e733d27687474703a2f2f7777772e77332e6f72672f323030302f73766727207072657365727665417370656374526174696f3d27784d696e594d696e206d656574272076696577426f783d273020302033353020333530273e3c7374796c653e2e62617365207b2066696c6c3a2077686974653b20666f6e742d66616d696c793a2073657269663b20666f6e742d73697a653a20323470783b207d3c2f7374796c653e3c726563742077696474683d273130302527206865696768743d2731303025272066696c6c3d27626c61636b27202f3e3c7465787420783d273530252720793d273530252720636c6173733d27626173652720646f6d696e616e742d626173656c696e653d276d6964646c652720746578742d616e63686f723d276d6964646c65273e",
  "linkReferences": {},
  "deployedLinkReferences": {}
}